{
  "contractName": "DocumentCertification",
  "abi": [
    {
      "inputs": [],
      "stateMutability": "nonpayable",
      "type": "constructor"
    },
    {
      "inputs": [
        {
          "internalType": "string",
          "name": "",
          "type": "string"
        }
      ],
      "name": "certifiedDocuments",
      "outputs": [
        {
          "internalType": "string",
          "name": "contentHash",
          "type": "string"
        },
        {
          "internalType": "string",
          "name": "fileHash",
          "type": "string"
        },
        {
          "internalType": "uint256",
          "name": "timestamp",
          "type": "uint256"
        }
      ],
      "stateMutability": "view",
      "type": "function",
      "constant": true
    },
    {
      "inputs": [],
      "name": "owner",
      "outputs": [
        {
          "internalType": "address",
          "name": "",
          "type": "address"
        }
      ],
      "stateMutability": "view",
      "type": "function",
      "constant": true
    },
    {
      "inputs": [
        {
          "internalType": "string",
          "name": "_contentHash",
          "type": "string"
        }
      ],
      "name": "getDocumentInfo",
      "outputs": [
        {
          "internalType": "string",
          "name": "",
          "type": "string"
        },
        {
          "internalType": "string",
          "name": "",
          "type": "string"
        },
        {
          "internalType": "uint256",
          "name": "",
          "type": "uint256"
        }
      ],
      "stateMutability": "view",
      "type": "function",
      "constant": true
    },
    {
      "inputs": [
        {
          "internalType": "string",
          "name": "_contentHash",
          "type": "string"
        }
      ],
      "name": "documentExists",
      "outputs": [
        {
          "internalType": "bool",
          "name": "",
          "type": "bool"
        }
      ],
      "stateMutability": "view",
      "type": "function",
      "constant": true
    },
    {
      "inputs": [
        {
          "internalType": "string",
          "name": "_contentHash",
          "type": "string"
        },
        {
          "internalType": "string",
          "name": "_fileHash",
          "type": "string"
        }
      ],
      "name": "saveDocument",
      "outputs": [],
      "stateMutability": "nonpayable",
      "type": "function"
    }
  ],
  "bytecode": "0x608060405234801561001057600080fd5b50336000806101000a81548173ffffffffffffffffffffffffffffffffffffffff021916908373ffffffffffffffffffffffffffffffffffffffff160217905550610e72806100606000396000f3fe608060405234801561001057600080fd5b50600436106100575760003560e01c80633026785f1461005c57806337ce06bd1461012f5780638da5cb5b146102d6578063cafb32e214610320578063e8beb2f914610472575b600080fd5b6101156004803603602081101561007257600080fd5b810190808035906020019064010000000081111561008f57600080fd5b8201836020820111156100a157600080fd5b803590602001918460018302840111640100000000831117156100c357600080fd5b91908080601f016020809104026020016040519081016040528093929190818152602001838380828437600081840152601f19601f820116905080830192505050505050509192919290505050610619565b604051808215151515815260200191505060405180910390f35b6101e86004803603602081101561014557600080fd5b810190808035906020019064010000000081111561016257600080fd5b82018360208201111561017457600080fd5b8035906020019184600183028401116401000000008311171561019657600080fd5b91908080601f016020809104026020016040519081016040528093929190818152602001838380828437600081840152601f19601f8201169050808301925050505050505091929192905050506106a6565b604051808060200180602001848152602001838103835286818151815260200191508051906020019080838360005b83811015610232578082015181840152602081019050610217565b50505050905090810190601f16801561025f5780820380516001836020036101000a031916815260200191505b50838103825285818151815260200191508051906020019080838360005b8381101561029857808201518184015260208101905061027d565b50505050905090810190601f1680156102c55780820380516001836020036101000a031916815260200191505b509550505050505060405180910390f35b6102de610935565b604051808273ffffffffffffffffffffffffffffffffffffffff1673ffffffffffffffffffffffffffffffffffffffff16815260200191505060405180910390f35b6104706004803603604081101561033657600080fd5b810190808035906020019064010000000081111561035357600080fd5b82018360208201111561036557600080fd5b8035906020019184600183028401116401000000008311171561038757600080fd5b91908080601f016020809104026020016040519081016040528093929190818152602001838380828437600081840152601f19601f820116905080830192505050505050509192919290803590602001906401000000008111156103ea57600080fd5b8201836020820111156103fc57600080fd5b8035906020019184600183028401116401000000008311171561041e57600080fd5b91908080601f016020809104026020016040519081016040528093929190818152602001838380828437600081840152601f19601f82011690508083019250505050505050919291929050505061095a565b005b61052b6004803603602081101561048857600080fd5b81019080803590602001906401000000008111156104a557600080fd5b8201836020820111156104b757600080fd5b803590602001918460018302840111640100000000831117156104d957600080fd5b91908080601f016020809104026020016040519081016040528093929190818152602001838380828437600081840152601f19601f820116905080830192505050505050509192919290505050610bf8565b604051808060200180602001848152602001838103835286818151815260200191508051906020019080838360005b8381101561057557808201518184015260208101905061055a565b50505050905090810190601f1680156105a25780820380516001836020036101000a031916815260200191505b50838103825285818151815260200191508051906020019080838360005b838110156105db5780820151818401526020810190506105c0565b50505050905090810190601f1680156106085780820380516001836020036101000a031916815260200191505b509550505050505060405180910390f35b6000806001836040518082805190602001908083835b60208310610652578051825260208201915060208101905060208303925061062f565b6001836020036101000a038019825116818451168082178552505050505050905001915050908152602001604051809103902060000180546001816001161561010002031660029004905014159050919050565b60608060006001846040518082805190602001908083835b602083106106e157805182526020820191506020810190506020830392506106be565b6001836020036101000a03801982511681845116808217855250505050505090500191505090815260200160405180910390206000016001856040518082805190602001908083835b6020831061074d578051825260208201915060208101905060208303925061072a565b6001836020036101000a03801982511681845116808217855250505050505090500191505090815260200160405180910390206001016001866040518082805190602001908083835b602083106107b95780518252602082019150602081019050602083039250610796565b6001836020036101000a038019825116818451168082178552505050505050905001915050908152602001604051809103902060020154828054600181600116156101000203166002900480601f0160208091040260200160405190810160405280929190818152602001828054600181600116156101000203166002900480156108855780601f1061085a57610100808354040283529160200191610885565b820191906000526020600020905b81548152906001019060200180831161086857829003601f168201915b50505050509250818054600181600116156101000203166002900480601f0160208091040260200160405190810160405280929190818152602001828054600181600116156101000203166002900480156109215780601f106108f657610100808354040283529160200191610921565b820191906000526020600020905b81548152906001019060200180831161090457829003601f168201915b505050505091509250925092509193909250565b6000809054906101000a900473ffffffffffffffffffffffffffffffffffffffff1681565b6000809054906101000a900473ffffffffffffffffffffffffffffffffffffffff1673ffffffffffffffffffffffffffffffffffffffff163373ffffffffffffffffffffffffffffffffffffffff16146109ff576040517f08c379a000000000000000000000000000000000000000000000000000000000815260040180806020018281038252602f815260200180610e0e602f913960400191505060405180910390fd5b610a0882610619565b15610a7b576040517f08c379a000000000000000000000000000000000000000000000000000000000815260040180806020018281038252601b8152602001807f436f6e74656e74206861736820616c726561647920657869737473000000000081525060200191505060405180910390fd5b6000429050826001846040518082805190602001908083835b60208310610ab75780518252602082019150602081019050602083039250610a94565b6001836020036101000a03801982511681845116808217855250505050505090500191505090815260200160405180910390206000019080519060200190610b00929190610d68565b50816001846040518082805190602001908083835b60208310610b385780518252602082019150602081019050602083039250610b15565b6001836020036101000a03801982511681845116808217855250505050505090500191505090815260200160405180910390206001019080519060200190610b81929190610d68565b50806001846040518082805190602001908083835b60208310610bb95780518252602082019150602081019050602083039250610b96565b6001836020036101000a038019825116818451168082178552505050505050905001915050908152602001604051809103902060020181905550505050565b600181805160208101820180518482526020830160208501208183528095505050505050600091509050806000018054600181600116156101000203166002900480601f016020809104026020016040519081016040528092919081815260200182805460018160011615610100020316600290048015610cba5780601f10610c8f57610100808354040283529160200191610cba565b820191906000526020600020905b815481529060010190602001808311610c9d57829003601f168201915b505050505090806001018054600181600116156101000203166002900480601f016020809104026020016040519081016040528092919081815260200182805460018160011615610100020316600290048015610d585780601f10610d2d57610100808354040283529160200191610d58565b820191906000526020600020905b815481529060010190602001808311610d3b57829003601f168201915b5050505050908060020154905083565b828054600181600116156101000203166002900490600052602060002090601f016020900481019282601f10610da957805160ff1916838001178555610dd7565b82800160010185558215610dd7579182015b82811115610dd6578251825591602001919060010190610dbb565b5b509050610de49190610de8565b5090565b610e0a91905b80821115610e06576000816000905550600101610dee565b5090565b9056fe4f6e6c792074686520636f6e7472616374206f776e65722063616e20706572666f726d207468697320616374696f6ea26469706673582212206bad0a2b96ffb3dd8fadde8c9d4ce392c08f087b8fb06f87caba2c5a29903fa864736f6c63430006000033",
  "source": "// SPDX-License-Identifier: MIT\npragma solidity ^0.6.0;\n\ncontract DocumentCertification {\n    address public owner;\n      \n    struct Document {\n        string contentHash; \n        string fileHash;  \n        uint256 timestamp;  \n    }\n    \n    mapping(string => Document) public certifiedDocuments;\n\n    modifier onlyOwner() {\n        require(msg.sender == owner, \"Only the contract owner can perform this action\");\n        _;\n    }\n\n    constructor() public {\n        owner = msg.sender;\n    } \n\n    function getDocumentInfo(string memory _contentHash) public view returns (string memory, string memory, uint256) {\n        return (\n            certifiedDocuments[_contentHash].contentHash,\n            certifiedDocuments[_contentHash].fileHash,\n            certifiedDocuments[_contentHash].timestamp\n        );\n    }\n \n    function documentExists(string memory _contentHash) public view returns (bool) {\n        return bytes(certifiedDocuments[_contentHash].contentHash).length != 0;\n    }\n \n    function saveDocument(string memory _contentHash, string memory _fileHash) public onlyOwner {\n        require(!documentExists(_contentHash), \"Content hash already exists\");\n        uint256 timestamps = block.timestamp; \n        certifiedDocuments[_contentHash].contentHash= _contentHash;\n        certifiedDocuments[_contentHash].fileHash = _fileHash;\n        certifiedDocuments[_contentHash].timestamp = timestamps; \n    }\n}\n",
  "sourcePath": "E:\\1. A PATH TO SUCCESS\\Memoire\\Codes\\dashboard\\blockchain\\contracts\\DocumentCertification.sol",
  "compiler": {
    "name": "solc",
    "version": "0.6.0+commit.26b70077.Emscripten.clang"
  },
  "schemaVersion": "3.4.14",
  "updatedAt": "2023-09-08T10:11:13.657Z",
  "networkType": "ethereum",
  "devdoc": {
    "methods": {}
  },
  "userdoc": {
    "methods": {}
  }
}