{
  "contractName": "DocumentCertification",
  "abi": [
    {
      "inputs": [],
      "stateMutability": "nonpayable",
      "type": "constructor"
    },
    {
      "inputs": [
        {
          "internalType": "string",
          "name": "",
          "type": "string"
        }
      ],
      "name": "certifiedDocuments",
      "outputs": [
        {
          "internalType": "string",
          "name": "contentHash",
          "type": "string"
        },
        {
          "internalType": "uint256",
          "name": "timestamp",
          "type": "uint256"
        },
        {
          "internalType": "string",
          "name": "owner",
          "type": "string"
        },
        {
          "internalType": "string",
          "name": "fileUrl",
          "type": "string"
        }
      ],
      "stateMutability": "view",
      "type": "function",
      "constant": true
    },
    {
      "inputs": [],
      "name": "owner",
      "outputs": [
        {
          "internalType": "address",
          "name": "",
          "type": "address"
        }
      ],
      "stateMutability": "view",
      "type": "function",
      "constant": true
    },
    {
      "inputs": [
        {
          "internalType": "string",
          "name": "_contentHash",
          "type": "string"
        }
      ],
      "name": "certifyDocument",
      "outputs": [],
      "stateMutability": "nonpayable",
      "type": "function"
    }
  ],
  "bytecode": "0x608060405234801561001057600080fd5b50336000806101000a81548173ffffffffffffffffffffffffffffffffffffffff021916908373ffffffffffffffffffffffffffffffffffffffff160217905550610954806100606000396000f3fe608060405234801561001057600080fd5b50600436106100415760003560e01c80638da5cb5b14610046578063db9dd76214610090578063e8beb2f91461014b575b600080fd5b61004e61035e565b604051808273ffffffffffffffffffffffffffffffffffffffff1673ffffffffffffffffffffffffffffffffffffffff16815260200191505060405180910390f35b610149600480360360208110156100a657600080fd5b81019080803590602001906401000000008111156100c357600080fd5b8201836020820111156100d557600080fd5b803590602001918460018302840111640100000000831117156100f757600080fd5b91908080601f016020809104026020016040519081016040528093929190818152602001838380828437600081840152601f19601f820116905080830192505050505050509192919290505050610383565b005b6102046004803603602081101561016157600080fd5b810190808035906020019064010000000081111561017e57600080fd5b82018360208201111561019057600080fd5b803590602001918460018302840111640100000000831117156101b257600080fd5b91908080601f016020809104026020016040519081016040528093929190818152602001838380828437600081840152601f19601f820116905080830192505050505050509192919290505050610643565b60405180806020018581526020018060200180602001848103845288818151815260200191508051906020019080838360005b83811015610252578082015181840152602081019050610237565b50505050905090810190601f16801561027f5780820380516001836020036101000a031916815260200191505b50848103835286818151815260200191508051906020019080838360005b838110156102b857808201518184015260208101905061029d565b50505050905090810190601f1680156102e55780820380516001836020036101000a031916815260200191505b50848103825285818151815260200191508051906020019080838360005b8381101561031e578082015181840152602081019050610303565b50505050905090810190601f16801561034b5780820380516001836020036101000a031916815260200191505b5097505050505050505060405180910390f35b6000809054906101000a900473ffffffffffffffffffffffffffffffffffffffff1681565b60008151116103fa576040517f08c379a000000000000000000000000000000000000000000000000000000000815260040180806020018281038252601c8152602001807f436f6e74656e7420686173682063616e6e6f7420626520656d7074790000000081525060200191505060405180910390fd5b60006001826040518082805190602001908083835b60208310610432578051825260208201915060208101905060208303925061040f565b6001836020036101000a038019825116818451168082178552505050505050905001915050908152602001604051809103902060010154146104dc576040517f08c379a000000000000000000000000000000000000000000000000000000000815260040180806020018281038252601d8152602001807f446f63756d656e7420697320616c72656164792063657274696669656400000081525060200191505060405180910390fd5b6104e4610851565b60405180608001604052808381526020014281526020016040518060400160405280600b81526020017f6d62756c61204d626f6d6100000000000000000000000000000000000000000081525081526020016040518060400160405280601181526020017f687474703a2f2f676f6f676c652e636f6d0000000000000000000000000000008152508152509050806001836040518082805190602001908083835b602083106105a85780518252602082019150602081019050602083039250610585565b6001836020036101000a038019825116818451168082178552505050505050905001915050908152602001604051809103902060008201518160000190805190602001906105f7929190610879565b5060208201518160010155604082015181600201908051906020019061061e929190610879565b50606082015181600301908051906020019061063b929190610879565b509050505050565b600181805160208101820180518482526020830160208501208183528095505050505050600091509050806000018054600181600116156101000203166002900480601f0160208091040260200160405190810160405280929190818152602001828054600181600116156101000203166002900480156107055780601f106106da57610100808354040283529160200191610705565b820191906000526020600020905b8154815290600101906020018083116106e857829003601f168201915b505050505090806001015490806002018054600181600116156101000203166002900480601f0160208091040260200160405190810160405280929190818152602001828054600181600116156101000203166002900480156107a95780601f1061077e576101008083540402835291602001916107a9565b820191906000526020600020905b81548152906001019060200180831161078c57829003601f168201915b505050505090806003018054600181600116156101000203166002900480601f0160208091040260200160405190810160405280929190818152602001828054600181600116156101000203166002900480156108475780601f1061081c57610100808354040283529160200191610847565b820191906000526020600020905b81548152906001019060200180831161082a57829003601f168201915b5050505050905084565b6040518060800160405280606081526020016000815260200160608152602001606081525090565b828054600181600116156101000203166002900490600052602060002090601f016020900481019282601f106108ba57805160ff19168380011785556108e8565b828001600101855582156108e8579182015b828111156108e75782518255916020019190600101906108cc565b5b5090506108f591906108f9565b5090565b61091b91905b808211156109175760008160009055506001016108ff565b5090565b9056fea2646970667358221220cc29c63d91eb05e8d0afb384a195ce69c5af6e83e7b86707a18ddb0b70b93dda64736f6c63430006000033",
  "source": "// SPDX-License-Identifier: MIT\npragma solidity ^0.6.0;\n\ncontract DocumentCertification {\n    address public owner;\n      \n    struct Document {\n        string contentHash;  \n        uint256 timestamp;    \n        string owner;\n        string fileUrl;\n    }\n    \n    mapping(string => Document) public certifiedDocuments;\n\n    modifier onlyOwner() {\n        require(msg.sender == owner, \"Only the contract owner can perform this action\");\n        _;\n    }\n\n    constructor() public {\n        owner = msg.sender;\n    }\n\n    function certifyDocument(string memory _contentHash) public {\n        require(bytes(_contentHash).length > 0, \"Content hash cannot be empty\");\n        require(certifiedDocuments[_contentHash].timestamp == 0, \"Document is already certified\");\n        \n        Document memory newDocument = Document({\n            contentHash: _contentHash,\n            timestamp: block.timestamp,\n            owner: \"mbula Mboma\",\n            fileUrl: \"http://google.com\"\n        });\n        \n        certifiedDocuments[_contentHash] = newDocument;\n    }\n \n}\n",
  "sourcePath": "E:\\1. A PATH TO SUCCESS\\Memoire\\Codes\\dashboard\\blockchain\\contracts\\DocumentCertification.sol",
  "compiler": {
    "name": "solc",
    "version": "0.6.0+commit.26b70077.Emscripten.clang"
  },
  "schemaVersion": "3.4.14",
  "updatedAt": "2023-08-27T17:28:40.264Z",
  "networkType": "ethereum",
  "devdoc": {
    "methods": {}
  },
  "userdoc": {
    "methods": {}
  }
}