{
  "contractName": "DocumentCertification",
  "abi": [
    {
      "inputs": [],
      "stateMutability": "nonpayable",
      "type": "constructor"
    },
    {
      "inputs": [
        {
          "internalType": "string",
          "name": "",
          "type": "string"
        }
      ],
      "name": "certifiedDocuments",
      "outputs": [
        {
          "internalType": "string",
          "name": "contentHash",
          "type": "string"
        },
        {
          "internalType": "string",
          "name": "fileHash",
          "type": "string"
        },
        {
          "internalType": "uint256",
          "name": "timestamp",
          "type": "uint256"
        }
      ],
      "stateMutability": "view",
      "type": "function",
      "constant": true
    },
    {
      "inputs": [],
      "name": "owner",
      "outputs": [
        {
          "internalType": "address",
          "name": "",
          "type": "address"
        }
      ],
      "stateMutability": "view",
      "type": "function",
      "constant": true
    },
    {
      "inputs": [
        {
          "internalType": "string",
          "name": "_contentHash",
          "type": "string"
        }
      ],
      "name": "documentExists",
      "outputs": [
        {
          "internalType": "bool",
          "name": "",
          "type": "bool"
        }
      ],
      "stateMutability": "view",
      "type": "function",
      "constant": true
    },
    {
      "inputs": [
        {
          "internalType": "string",
          "name": "_contentHash",
          "type": "string"
        },
        {
          "internalType": "string",
          "name": "_fileHash",
          "type": "string"
        }
      ],
      "name": "saveDocument",
      "outputs": [],
      "stateMutability": "nonpayable",
      "type": "function"
    }
  ],
  "bytecode": "0x608060405234801561001057600080fd5b50336000806101000a81548173ffffffffffffffffffffffffffffffffffffffff021916908373ffffffffffffffffffffffffffffffffffffffff160217905550610a31806100606000396000f3fe608060405234801561001057600080fd5b506004361061004c5760003560e01c80633026785f146100515780638da5cb5b14610124578063cafb32e21461016e578063e8beb2f9146102c0575b600080fd5b61010a6004803603602081101561006757600080fd5b810190808035906020019064010000000081111561008457600080fd5b82018360208201111561009657600080fd5b803590602001918460018302840111640100000000831117156100b857600080fd5b91908080601f016020809104026020016040519081016040528093929190818152602001838380828437600081840152601f19601f820116905080830192505050505050509192919290505050610467565b604051808215151515815260200191505060405180910390f35b61012c6104f4565b604051808273ffffffffffffffffffffffffffffffffffffffff1673ffffffffffffffffffffffffffffffffffffffff16815260200191505060405180910390f35b6102be6004803603604081101561018457600080fd5b81019080803590602001906401000000008111156101a157600080fd5b8201836020820111156101b357600080fd5b803590602001918460018302840111640100000000831117156101d557600080fd5b91908080601f016020809104026020016040519081016040528093929190818152602001838380828437600081840152601f19601f8201169050808301925050505050505091929192908035906020019064010000000081111561023857600080fd5b82018360208201111561024a57600080fd5b8035906020019184600183028401116401000000008311171561026c57600080fd5b91908080601f016020809104026020016040519081016040528093929190818152602001838380828437600081840152601f19601f820116905080830192505050505050509192919290505050610519565b005b610379600480360360208110156102d657600080fd5b81019080803590602001906401000000008111156102f357600080fd5b82018360208201111561030557600080fd5b8035906020019184600183028401116401000000008311171561032757600080fd5b91908080601f016020809104026020016040519081016040528093929190818152602001838380828437600081840152601f19601f8201169050808301925050505050505091929192905050506107b7565b604051808060200180602001848152602001838103835286818151815260200191508051906020019080838360005b838110156103c35780820151818401526020810190506103a8565b50505050905090810190601f1680156103f05780820380516001836020036101000a031916815260200191505b50838103825285818151815260200191508051906020019080838360005b8381101561042957808201518184015260208101905061040e565b50505050905090810190601f1680156104565780820380516001836020036101000a031916815260200191505b509550505050505060405180910390f35b6000806001836040518082805190602001908083835b602083106104a0578051825260208201915060208101905060208303925061047d565b6001836020036101000a038019825116818451168082178552505050505050905001915050908152602001604051809103902060000180546001816001161561010002031660029004905014159050919050565b6000809054906101000a900473ffffffffffffffffffffffffffffffffffffffff1681565b6000809054906101000a900473ffffffffffffffffffffffffffffffffffffffff1673ffffffffffffffffffffffffffffffffffffffff163373ffffffffffffffffffffffffffffffffffffffff16146105be576040517f08c379a000000000000000000000000000000000000000000000000000000000815260040180806020018281038252602f8152602001806109cd602f913960400191505060405180910390fd5b6105c782610467565b1561063a576040517f08c379a000000000000000000000000000000000000000000000000000000000815260040180806020018281038252601b8152602001807f436f6e74656e74206861736820616c726561647920657869737473000000000081525060200191505060405180910390fd5b6000429050826001846040518082805190602001908083835b602083106106765780518252602082019150602081019050602083039250610653565b6001836020036101000a038019825116818451168082178552505050505050905001915050908152602001604051809103902060000190805190602001906106bf929190610927565b50816001846040518082805190602001908083835b602083106106f757805182526020820191506020810190506020830392506106d4565b6001836020036101000a03801982511681845116808217855250505050505090500191505090815260200160405180910390206001019080519060200190610740929190610927565b50806001846040518082805190602001908083835b602083106107785780518252602082019150602081019050602083039250610755565b6001836020036101000a038019825116818451168082178552505050505050905001915050908152602001604051809103902060020181905550505050565b600181805160208101820180518482526020830160208501208183528095505050505050600091509050806000018054600181600116156101000203166002900480601f0160208091040260200160405190810160405280929190818152602001828054600181600116156101000203166002900480156108795780601f1061084e57610100808354040283529160200191610879565b820191906000526020600020905b81548152906001019060200180831161085c57829003601f168201915b505050505090806001018054600181600116156101000203166002900480601f0160208091040260200160405190810160405280929190818152602001828054600181600116156101000203166002900480156109175780601f106108ec57610100808354040283529160200191610917565b820191906000526020600020905b8154815290600101906020018083116108fa57829003601f168201915b5050505050908060020154905083565b828054600181600116156101000203166002900490600052602060002090601f016020900481019282601f1061096857805160ff1916838001178555610996565b82800160010185558215610996579182015b8281111561099557825182559160200191906001019061097a565b5b5090506109a391906109a7565b5090565b6109c991905b808211156109c55760008160009055506001016109ad565b5090565b9056fe4f6e6c792074686520636f6e7472616374206f776e65722063616e20706572666f726d207468697320616374696f6ea26469706673582212203bb61f2dcf99243213c0125ef9b352c8c6d5138c99cf33e1acf76684ce35858964736f6c63430006000033",
  "source": "// SPDX-License-Identifier: MIT\npragma solidity ^0.6.0;\n\ncontract DocumentCertification {\n    address public owner;\n      \n    struct Document {\n        string contentHash; \n        string fileHash;  \n        uint256 timestamp;  \n    }\n    \n    mapping(string => Document) public certifiedDocuments;\n\n    modifier onlyOwner() {\n        require(msg.sender == owner, \"Only the contract owner can perform this action\");\n        _;\n    }\n\n    constructor() public {\n        owner = msg.sender;\n    } \n \n    function documentExists(string memory _contentHash) public view returns (bool) {\n        return bytes(certifiedDocuments[_contentHash].contentHash).length != 0;\n    }\n \n    function saveDocument(string memory _contentHash, string memory _fileHash) public onlyOwner {\n        require(!documentExists(_contentHash), \"Content hash already exists\");\n        uint256 timestamps = block.timestamp; \n        certifiedDocuments[_contentHash].contentHash= _contentHash;\n        certifiedDocuments[_contentHash].fileHash = _fileHash;\n        certifiedDocuments[_contentHash].timestamp = timestamps; \n    }\n}\n",
  "sourcePath": "E:\\1. A PATH TO SUCCESS\\Memoire\\Codes\\dashboard\\blockchain\\contracts\\DocumentCertification.sol",
  "compiler": {
    "name": "solc",
    "version": "0.6.0+commit.26b70077.Emscripten.clang"
  },
  "schemaVersion": "3.4.14",
  "updatedAt": "2023-09-04T14:13:11.499Z",
  "networkType": "ethereum",
  "devdoc": {
    "methods": {}
  },
  "userdoc": {
    "methods": {}
  }
}